:020000002928AD
:100008008C0003088301990004089A000B118312DD
:100018008D0A0D08133A031D21280E08133E84008B
:10002800000886008E0A03198F0A0E08063A0F0484
:10003800031D20288E018F018D0183121A08840068
:10004800190883008C0E0C0E09000D308400133043
:10005800392000309C005A309B001330840019303E
:100068003E20602804068001840A0406031D362801
:1000780064000034CF0049208000840A04084F0639
:10008800031900343F2883129B009C1B52281C082C
:100098008A001B089B0A03199C0A820083131C18F8
:1000A80083171B089B0A84000008080001340634E3
:1000B8000F340834023404348B178B160B11831257
:1000C80081018316811281110114811401158601A1
:1000D8006C288312900004309100FB309200920B40
:0C00E8007328910B7128900B6F28080002
:02400E00F23F7F
:00000001FF
